{
  "contractName": "RegistroMensajes",
  "abi": [
    {
      "anonymous": false,
      "inputs": [
        {
          "indexed": false,
          "internalType": "uint256",
          "name": "index",
          "type": "uint256"
        }
      ],
      "name": "MensajeConfirmado",
      "type": "event"
    },
    {
      "anonymous": false,
      "inputs": [
        {
          "indexed": true,
          "internalType": "address",
          "name": "remitente",
          "type": "address"
        },
        {
          "indexed": false,
          "internalType": "string",
          "name": "contenido",
          "type": "string"
        },
        {
          "indexed": false,
          "internalType": "string",
          "name": "archivoHash",
          "type": "string"
        },
        {
          "indexed": false,
          "internalType": "uint256",
          "name": "timestamp",
          "type": "uint256"
        },
        {
          "indexed": false,
          "internalType": "enum RegistroMensajes.Estado",
          "name": "estado",
          "type": "uint8"
        }
      ],
      "name": "MensajeRegistrado",
      "type": "event"
    },
    {
      "inputs": [
        {
          "internalType": "uint256",
          "name": "",
          "type": "uint256"
        }
      ],
      "name": "mensajes",
      "outputs": [
        {
          "internalType": "address",
          "name": "remitente",
          "type": "address"
        },
        {
          "internalType": "string",
          "name": "contenido",
          "type": "string"
        },
        {
          "internalType": "string",
          "name": "archivoHash",
          "type": "string"
        },
        {
          "internalType": "uint256",
          "name": "timestamp",
          "type": "uint256"
        },
        {
          "internalType": "enum RegistroMensajes.Estado",
          "name": "estado",
          "type": "uint8"
        }
      ],
      "stateMutability": "view",
      "type": "function",
      "constant": true
    },
    {
      "inputs": [
        {
          "internalType": "string",
          "name": "_contenido",
          "type": "string"
        },
        {
          "internalType": "string",
          "name": "_archivoHash",
          "type": "string"
        }
      ],
      "name": "registrarMensaje",
      "outputs": [],
      "stateMutability": "nonpayable",
      "type": "function"
    },
    {
      "inputs": [
        {
          "internalType": "uint256",
          "name": "index",
          "type": "uint256"
        }
      ],
      "name": "confirmarMensaje",
      "outputs": [],
      "stateMutability": "nonpayable",
      "type": "function"
    },
    {
      "inputs": [],
      "name": "obtenerTodosLosMensajes",
      "outputs": [
        {
          "components": [
            {
              "internalType": "address",
              "name": "remitente",
              "type": "address"
            },
            {
              "internalType": "string",
              "name": "contenido",
              "type": "string"
            },
            {
              "internalType": "string",
              "name": "archivoHash",
              "type": "string"
            },
            {
              "internalType": "uint256",
              "name": "timestamp",
              "type": "uint256"
            },
            {
              "internalType": "enum RegistroMensajes.Estado",
              "name": "estado",
              "type": "uint8"
            }
          ],
          "internalType": "struct RegistroMensajes.Mensaje[]",
          "name": "",
          "type": "tuple[]"
        }
      ],
      "stateMutability": "view",
      "type": "function",
      "constant": true
    },
    {
      "inputs": [],
      "name": "totalMensajes",
      "outputs": [
        {
          "internalType": "uint256",
          "name": "",
          "type": "uint256"
        }
      ],
      "stateMutability": "view",
      "type": "function",
      "constant": true
    }
  ],
  "bytecode": "0x608060405234801561001057600080fd5b506112cd806100206000396000f3fe608060405234801561001057600080fd5b50600436106100575760003560e01c806327468dcb1461005c57806378229c7e146100905780639fb7dfe8146100ac578063af316589146100c8578063dc9530d0146100e6575b600080fd5b610076600480360381019061007191906108c6565b610104565b604051610087959493929190610a4a565b60405180910390f35b6100aa60048036038101906100a591906108c6565b610287565b005b6100c660048036038101906100c19190610b10565b6103ef565b005b6100d061065c565b6040516100dd9190610b91565b60405180910390f35b6100ee610668565b6040516100fb9190610d62565b60405180910390f35b6000818154811061011457600080fd5b90600052602060002090600502016000915090508060000160009054906101000a900473ffffffffffffffffffffffffffffffffffffffff169080600101805461015d90610db3565b80601f016020809104026020016040519081016040528092919081815260200182805461018990610db3565b80156101d65780601f106101ab576101008083540402835291602001916101d6565b820191906000526020600020905b8154815290600101906020018083116101b957829003601f168201915b5050505050908060020180546101eb90610db3565b80601f016020809104026020016040519081016040528092919081815260200182805461021790610db3565b80156102645780601f1061023957610100808354040283529160200191610264565b820191906000526020600020905b81548152906001019060200180831161024757829003601f168201915b5050505050908060030154908060040160009054906101000a900460ff16905085565b60008054905081106102ce576040517f08c379a00000000000000000000000000000000000000000000000000000000081526004016102c590610e30565b60405180910390fd5b600060018111156102e2576102e16109d3565b5b600082815481106102f6576102f5610e50565b5b906000526020600020906005020160040160009054906101000a900460ff166001811115610327576103266109d3565b5b14610367576040517f08c379a000000000000000000000000000000000000000000000000000000000815260040161035e90610ecb565b60405180910390fd5b60016000828154811061037d5761037c610e50565b5b906000526020600020906005020160040160006101000a81548160ff021916908360018111156103b0576103af6109d3565b5b02179055507fd3d8eca1049c6c286208413037e388e6ee29987ae1b8a638dfb3141f0f31904a816040516103e49190610b91565b60405180910390a150565b60008484905011610435576040517f08c379a000000000000000000000000000000000000000000000000000000000815260040161042c90610f37565b60405180910390fd5b600060019050600083839050111561044c57600090505b60006040518060a001604052803373ffffffffffffffffffffffffffffffffffffffff16815260200187878080601f016020809104026020016040519081016040528093929190818152602001838380828437600081840152601f19601f82011690508083019250505050505050815260200185858080601f016020809104026020016040519081016040528093929190818152602001838380828437600081840152601f19601f820116905080830192505050505050508152602001428152602001836001811115610522576105216109d3565b5b815250908060018154018082558091505060019003906000526020600020906005020160009091909190915060008201518160000160006101000a81548173ffffffffffffffffffffffffffffffffffffffff021916908373ffffffffffffffffffffffffffffffffffffffff16021790555060208201518160010190816105aa9190611132565b5060408201518160020190816105c09190611132565b506060820151816003015560808201518160040160006101000a81548160ff021916908360018111156105f6576105f56109d3565b5b021790555050503373ffffffffffffffffffffffffffffffffffffffff167f071e13980308e38df001f261012d37f9f6efe175973cfaaada89bfa7127a9c4a86868686428760405161064d96959493929190611240565b60405180910390a25050505050565b60008080549050905090565b60606000805480602002602001604051908101604052809291908181526020016000905b8282101561087d57838290600052602060002090600502016040518060a00160405290816000820160009054906101000a900473ffffffffffffffffffffffffffffffffffffffff1673ffffffffffffffffffffffffffffffffffffffff1673ffffffffffffffffffffffffffffffffffffffff16815260200160018201805461071590610db3565b80601f016020809104026020016040519081016040528092919081815260200182805461074190610db3565b801561078e5780601f106107635761010080835404028352916020019161078e565b820191906000526020600020905b81548152906001019060200180831161077157829003601f168201915b505050505081526020016002820180546107a790610db3565b80601f01602080910402602001604051908101604052809291908181526020018280546107d390610db3565b80156108205780601f106107f557610100808354040283529160200191610820565b820191906000526020600020905b81548152906001019060200180831161080357829003601f168201915b50505050508152602001600382015481526020016004820160009054906101000a900460ff166001811115610858576108576109d3565b5b600181111561086a576108696109d3565b5b815250508152602001906001019061068c565b50505050905090565b600080fd5b600080fd5b6000819050919050565b6108a381610890565b81146108ae57600080fd5b50565b6000813590506108c08161089a565b92915050565b6000602082840312156108dc576108db610886565b5b60006108ea848285016108b1565b91505092915050565b600073ffffffffffffffffffffffffffffffffffffffff82169050919050565b600061091e826108f3565b9050919050565b61092e81610913565b82525050565b600081519050919050565b600082825260208201905092915050565b60005b8381101561096e578082015181840152602081019050610953565b60008484015250505050565b6000601f19601f8301169050919050565b600061099682610934565b6109a0818561093f565b93506109b0818560208601610950565b6109b98161097a565b840191505092915050565b6109cd81610890565b82525050565b7f4e487b7100000000000000000000000000000000000000000000000000000000600052602160045260246000fd5b60028110610a1357610a126109d3565b5b50565b6000819050610a2482610a02565b919050565b6000610a3482610a16565b9050919050565b610a4481610a29565b82525050565b600060a082019050610a5f6000830188610925565b8181036020830152610a71818761098b565b90508181036040830152610a85818661098b565b9050610a9460608301856109c4565b610aa16080830184610a3b565b9695505050505050565b600080fd5b600080fd5b600080fd5b60008083601f840112610ad057610acf610aab565b5b8235905067ffffffffffffffff811115610aed57610aec610ab0565b5b602083019150836001820283011115610b0957610b08610ab5565b5b9250929050565b60008060008060408587031215610b2a57610b29610886565b5b600085013567ffffffffffffffff811115610b4857610b4761088b565b5b610b5487828801610aba565b9450945050602085013567ffffffffffffffff811115610b7757610b7661088b565b5b610b8387828801610aba565b925092505092959194509250565b6000602082019050610ba660008301846109c4565b92915050565b600081519050919050565b600082825260208201905092915050565b6000819050602082019050919050565b610be181610913565b82525050565b600082825260208201905092915050565b6000610c0382610934565b610c0d8185610be7565b9350610c1d818560208601610950565b610c268161097a565b840191505092915050565b610c3a81610890565b82525050565b610c4981610a29565b82525050565b600060a083016000830151610c676000860182610bd8565b5060208301518482036020860152610c7f8282610bf8565b91505060408301518482036040860152610c998282610bf8565b9150506060830151610cae6060860182610c31565b506080830151610cc16080860182610c40565b508091505092915050565b6000610cd88383610c4f565b905092915050565b6000602082019050919050565b6000610cf882610bac565b610d028185610bb7565b935083602082028501610d1485610bc8565b8060005b85811015610d505784840389528151610d318582610ccc565b9450610d3c83610ce0565b925060208a01995050600181019050610d18565b50829750879550505050505092915050565b60006020820190508181036000830152610d7c8184610ced565b905092915050565b7f4e487b7100000000000000000000000000000000000000000000000000000000600052602260045260246000fd5b60006002820490506001821680610dcb57607f821691505b602082108103610dde57610ddd610d84565b5b50919050565b7f496e6469636520696e76616c69646f0000000000000000000000000000000000600082015250565b6000610e1a600f8361093f565b9150610e2582610de4565b602082019050919050565b60006020820190508181036000830152610e4981610e0d565b9050919050565b7f4e487b7100000000000000000000000000000000000000000000000000000000600052603260045260246000fd5b7f596120636f6e6669726d61646f00000000000000000000000000000000000000600082015250565b6000610eb5600d8361093f565b9150610ec082610e7f565b602082019050919050565b60006020820190508181036000830152610ee481610ea8565b9050919050565b7f456c206d656e73616a65206e6f20707565646520657374617220766163696f00600082015250565b6000610f21601f8361093f565b9150610f2c82610eeb565b602082019050919050565b60006020820190508181036000830152610f5081610f14565b9050919050565b7f4e487b7100000000000000000000000000000000000000000000000000000000600052604160045260246000fd5b60008190508160005260206000209050919050565b60006020601f8301049050919050565b600082821b905092915050565b600060088302610fe87fffffffffffffffffffffffffffffffffffffffffffffffffffffffffffffffff82610fab565b610ff28683610fab565b95508019841693508086168417925050509392505050565b6000819050919050565b600061102f61102a61102584610890565b61100a565b610890565b9050919050565b6000819050919050565b61104983611014565b61105d61105582611036565b848454610fb8565b825550505050565b600090565b611072611065565b61107d818484611040565b505050565b5b818110156110a15761109660008261106a565b600181019050611083565b5050565b601f8211156110e6576110b781610f86565b6110c084610f9b565b810160208510156110cf578190505b6110e36110db85610f9b565b830182611082565b50505b505050565b600082821c905092915050565b6000611109600019846008026110eb565b1980831691505092915050565b600061112283836110f8565b9150826002028217905092915050565b61113b82610934565b67ffffffffffffffff81111561115457611153610f57565b5b61115e8254610db3565b6111698282856110a5565b600060209050601f83116001811461119c576000841561118a578287015190505b6111948582611116565b8655506111fc565b601f1984166111aa86610f86565b60005b828110156111d2578489015182556001820191506020850194506020810190506111ad565b868310156111ef57848901516111eb601f8916826110f8565b8355505b6001600288020188555050505b505050505050565b82818337600083830152505050565b600061121f838561093f565b935061122c838584611204565b6112358361097a565b840190509392505050565b6000608082019050818103600083015261125b81888a611213565b90508181036020830152611270818688611213565b905061127f60408301856109c4565b61128c6060830184610a3b565b97965050505050505056fea2646970667358221220d58a69a9d0cfdbc5cb80d93c0bdf76f1d03b122d308e8f1d3a39bdd7288913c764736f6c63430008110033",
  "immutableReferences": {},
  "source": "// SPDX-License-Identifier: MIT\r\npragma solidity ^0.8.17;\r\n\r\ncontract RegistroMensajes {\r\n    enum Estado { Pendiente, Confirmado }\r\n    struct Mensaje {\r\n        address remitente;\r\n        string contenido;\r\n        string archivoHash; // hash o enlace IPFS\r\n        uint256 timestamp;\r\n        Estado estado;\r\n    }\r\n\r\n    Mensaje[] public mensajes;\r\n\r\n    event MensajeRegistrado(address indexed remitente, string contenido, string archivoHash, uint256 timestamp, Estado estado);\r\n    event MensajeConfirmado(uint256 index);\r\n\r\n\r\n    function registrarMensaje(string calldata _contenido, string calldata _archivoHash) external {\r\n        require(bytes(_contenido).length > 0, \"El mensaje no puede estar vacio\");\r\n\r\n        Estado estadoFinal = Estado.Confirmado;\r\n        if (bytes(_archivoHash).length > 0) {\r\n            estadoFinal = Estado.Pendiente;\r\n        }\r\n\r\n        mensajes.push(Mensaje({\r\n            remitente: msg.sender,\r\n            contenido: _contenido,\r\n            archivoHash: _archivoHash,\r\n            timestamp: block.timestamp,\r\n            estado: estadoFinal\r\n        }));\r\n\r\n        emit MensajeRegistrado(msg.sender, _contenido, _archivoHash, block.timestamp, estadoFinal);\r\n    }\r\n\r\n    function confirmarMensaje(uint256 index) external {\r\n        require(index < mensajes.length, \"Indice invalido\");\r\n        require(mensajes[index].estado == Estado.Pendiente, \"Ya confirmado\");\r\n        mensajes[index].estado = Estado.Confirmado;\r\n        emit MensajeConfirmado(index);\r\n    }\r\n\r\n    function obtenerTodosLosMensajes() external view returns (Mensaje[] memory) {\r\n        return mensajes;\r\n    }\r\n\r\n    function totalMensajes() external view returns (uint256) {\r\n        return mensajes.length;\r\n    }\r\n}\r\n",
  "sourcePath": "C:\\Users\\usser\\Documents\\RegistroSeguro\\contracts\\RegistroMensajes.sol",
  "compiler": {
    "name": "solc",
    "version": "0.8.17+commit.8df45f5f.Emscripten.clang"
  },
  "schemaVersion": "3.4.16",
  "updatedAt": "2025-06-12T00:22:01.693Z",
  "networkType": "ethereum",
  "devdoc": {
    "kind": "dev",
    "methods": {},
    "version": 1
  },
  "userdoc": {
    "kind": "user",
    "methods": {},
    "version": 1
  }
}