{
  "contractName": "RegistroMensajes",
  "abi": [
    {
      "anonymous": false,
      "inputs": [
        {
          "indexed": false,
          "internalType": "uint256",
          "name": "index",
          "type": "uint256"
        }
      ],
      "name": "MensajeConfirmado",
      "type": "event"
    },
    {
      "anonymous": false,
      "inputs": [
        {
          "indexed": false,
          "internalType": "uint256",
          "name": "index",
          "type": "uint256"
        },
        {
          "indexed": false,
          "internalType": "string",
          "name": "nuevoContenido",
          "type": "string"
        }
      ],
      "name": "MensajeEditado",
      "type": "event"
    },
    {
      "anonymous": false,
      "inputs": [
        {
          "indexed": false,
          "internalType": "uint256",
          "name": "index",
          "type": "uint256"
        }
      ],
      "name": "MensajeEliminado",
      "type": "event"
    },
    {
      "anonymous": false,
      "inputs": [
        {
          "indexed": true,
          "internalType": "address",
          "name": "remitente",
          "type": "address"
        },
        {
          "indexed": false,
          "internalType": "string",
          "name": "contenido",
          "type": "string"
        },
        {
          "indexed": false,
          "internalType": "string",
          "name": "archivoHash",
          "type": "string"
        },
        {
          "indexed": false,
          "internalType": "uint256",
          "name": "timestamp",
          "type": "uint256"
        },
        {
          "indexed": false,
          "internalType": "enum RegistroMensajes.Estado",
          "name": "estado",
          "type": "uint8"
        }
      ],
      "name": "MensajeRegistrado",
      "type": "event"
    },
    {
      "inputs": [
        {
          "internalType": "uint256",
          "name": "",
          "type": "uint256"
        }
      ],
      "name": "mensajes",
      "outputs": [
        {
          "internalType": "address",
          "name": "remitente",
          "type": "address"
        },
        {
          "internalType": "string",
          "name": "contenido",
          "type": "string"
        },
        {
          "internalType": "string",
          "name": "archivoHash",
          "type": "string"
        },
        {
          "internalType": "uint256",
          "name": "timestamp",
          "type": "uint256"
        },
        {
          "internalType": "enum RegistroMensajes.Estado",
          "name": "estado",
          "type": "uint8"
        }
      ],
      "stateMutability": "view",
      "type": "function",
      "constant": true
    },
    {
      "inputs": [
        {
          "internalType": "string",
          "name": "_contenido",
          "type": "string"
        },
        {
          "internalType": "string",
          "name": "_archivoHash",
          "type": "string"
        }
      ],
      "name": "registrarMensaje",
      "outputs": [],
      "stateMutability": "nonpayable",
      "type": "function"
    },
    {
      "inputs": [
        {
          "internalType": "uint256",
          "name": "index",
          "type": "uint256"
        }
      ],
      "name": "confirmarMensaje",
      "outputs": [],
      "stateMutability": "nonpayable",
      "type": "function"
    },
    {
      "inputs": [
        {
          "internalType": "uint256",
          "name": "index",
          "type": "uint256"
        },
        {
          "internalType": "string",
          "name": "nuevoContenido",
          "type": "string"
        }
      ],
      "name": "editarMensaje",
      "outputs": [],
      "stateMutability": "nonpayable",
      "type": "function"
    },
    {
      "inputs": [
        {
          "internalType": "uint256",
          "name": "index",
          "type": "uint256"
        }
      ],
      "name": "eliminarMensaje",
      "outputs": [],
      "stateMutability": "nonpayable",
      "type": "function"
    },
    {
      "inputs": [],
      "name": "obtenerTodosLosMensajes",
      "outputs": [
        {
          "components": [
            {
              "internalType": "address",
              "name": "remitente",
              "type": "address"
            },
            {
              "internalType": "string",
              "name": "contenido",
              "type": "string"
            },
            {
              "internalType": "string",
              "name": "archivoHash",
              "type": "string"
            },
            {
              "internalType": "uint256",
              "name": "timestamp",
              "type": "uint256"
            },
            {
              "internalType": "enum RegistroMensajes.Estado",
              "name": "estado",
              "type": "uint8"
            }
          ],
          "internalType": "struct RegistroMensajes.Mensaje[]",
          "name": "",
          "type": "tuple[]"
        }
      ],
      "stateMutability": "view",
      "type": "function",
      "constant": true
    },
    {
      "inputs": [],
      "name": "totalMensajes",
      "outputs": [
        {
          "internalType": "uint256",
          "name": "",
          "type": "uint256"
        }
      ],
      "stateMutability": "view",
      "type": "function",
      "constant": true
    }
  ],
  "bytecode": "0x608060405234801561001057600080fd5b506118c1806100206000396000f3fe608060405234801561001057600080fd5b506004361061007d5760003560e01c8063af3165891161005b578063af316589146100ee578063dc9530d01461010c578063deea2bb21461012a578063e49ddf99146101465761007d565b806327468dcb1461008257806378229c7e146100b65780639fb7dfe8146100d2575b600080fd5b61009c60048036038101906100979190610c75565b610162565b6040516100ad959493929190610df9565b60405180910390f35b6100d060048036038101906100cb9190610c75565b6102e5565b005b6100ec60048036038101906100e79190610ebf565b61044d565b005b6100f66106ba565b6040516101039190610f40565b60405180910390f35b6101146106c6565b6040516101219190611111565b60405180910390f35b610144600480360381019061013f9190610c75565b6108e4565b005b610160600480360381019061015b9190611133565b610a80565b005b6000818154811061017257600080fd5b90600052602060002090600502016000915090508060000160009054906101000a900473ffffffffffffffffffffffffffffffffffffffff16908060010180546101bb906111c2565b80601f01602080910402602001604051908101604052809291908181526020018280546101e7906111c2565b80156102345780601f1061020957610100808354040283529160200191610234565b820191906000526020600020905b81548152906001019060200180831161021757829003601f168201915b505050505090806002018054610249906111c2565b80601f0160208091040260200160405190810160405280929190818152602001828054610275906111c2565b80156102c25780601f10610297576101008083540402835291602001916102c2565b820191906000526020600020905b8154815290600101906020018083116102a557829003601f168201915b5050505050908060030154908060040160009054906101000a900460ff16905085565b600080549050811061032c576040517f08c379a00000000000000000000000000000000000000000000000000000000081526004016103239061123f565b60405180910390fd5b600060018111156103405761033f610d82565b5b600082815481106103545761035361125f565b5b906000526020600020906005020160040160009054906101000a900460ff16600181111561038557610384610d82565b5b146103c5576040517f08c379a00000000000000000000000000000000000000000000000000000000081526004016103bc906112da565b60405180910390fd5b6001600082815481106103db576103da61125f565b5b906000526020600020906005020160040160006101000a81548160ff0219169083600181111561040e5761040d610d82565b5b02179055507fd3d8eca1049c6c286208413037e388e6ee29987ae1b8a638dfb3141f0f31904a816040516104429190610f40565b60405180910390a150565b60008484905011610493576040517f08c379a000000000000000000000000000000000000000000000000000000000815260040161048a90611346565b60405180910390fd5b60006001905060328585905011156104aa57600090505b60006040518060a001604052803373ffffffffffffffffffffffffffffffffffffffff16815260200187878080601f016020809104026020016040519081016040528093929190818152602001838380828437600081840152601f19601f82011690508083019250505050505050815260200185858080601f016020809104026020016040519081016040528093929190818152602001838380828437600081840152601f19601f8201169050808301925050505050505081526020014281526020018360018111156105805761057f610d82565b5b815250908060018154018082558091505060019003906000526020600020906005020160009091909190915060008201518160000160006101000a81548173ffffffffffffffffffffffffffffffffffffffff021916908373ffffffffffffffffffffffffffffffffffffffff16021790555060208201518160010190816106089190611541565b50604082015181600201908161061e9190611541565b506060820151816003015560808201518160040160006101000a81548160ff0219169083600181111561065457610653610d82565b5b021790555050503373ffffffffffffffffffffffffffffffffffffffff167f071e13980308e38df001f261012d37f9f6efe175973cfaaada89bfa7127a9c4a8686868642876040516106ab9695949392919061164f565b60405180910390a25050505050565b60008080549050905090565b60606000805480602002602001604051908101604052809291908181526020016000905b828210156108db57838290600052602060002090600502016040518060a00160405290816000820160009054906101000a900473ffffffffffffffffffffffffffffffffffffffff1673ffffffffffffffffffffffffffffffffffffffff1673ffffffffffffffffffffffffffffffffffffffff168152602001600182018054610773906111c2565b80601f016020809104026020016040519081016040528092919081815260200182805461079f906111c2565b80156107ec5780601f106107c1576101008083540402835291602001916107ec565b820191906000526020600020905b8154815290600101906020018083116107cf57829003601f168201915b50505050508152602001600282018054610805906111c2565b80601f0160208091040260200160405190810160405280929190818152602001828054610831906111c2565b801561087e5780601f106108535761010080835404028352916020019161087e565b820191906000526020600020905b81548152906001019060200180831161086157829003601f168201915b50505050508152602001600382015481526020016004820160009054906101000a900460ff1660018111156108b6576108b5610d82565b5b60018111156108c8576108c7610d82565b5b81525050815260200190600101906106ea565b50505050905090565b600080549050811061092b576040517f08c379a00000000000000000000000000000000000000000000000000000000081526004016109229061123f565b60405180910390fd5b3373ffffffffffffffffffffffffffffffffffffffff16600082815481106109565761095561125f565b5b906000526020600020906005020160000160009054906101000a900473ffffffffffffffffffffffffffffffffffffffff1673ffffffffffffffffffffffffffffffffffffffff16146109de576040517f08c379a00000000000000000000000000000000000000000000000000000000081526004016109d5906116f2565b60405180910390fd5b6040518060400160405280601a81526020017f5b456c696d696e61646f20706f7220656c207573756172696f5d00000000000081525060008281548110610a2857610a2761125f565b5b90600052602060002090600502016001019081610a459190611541565b507f817f6145821b606b3f4bfc4ef63e7eeeb21410beede4accbce2cbfad1f34f40681604051610a759190610f40565b60405180910390a150565b6000805490508310610ac7576040517f08c379a0000000000000000000000000000000000000000000000000000000008152600401610abe9061123f565b60405180910390fd5b3373ffffffffffffffffffffffffffffffffffffffff1660008481548110610af257610af161125f565b5b906000526020600020906005020160000160009054906101000a900473ffffffffffffffffffffffffffffffffffffffff1673ffffffffffffffffffffffffffffffffffffffff1614610b7a576040517f08c379a0000000000000000000000000000000000000000000000000000000008152600401610b719061175e565b60405180910390fd5b60008282905011610bc0576040517f08c379a0000000000000000000000000000000000000000000000000000000008152600401610bb790611346565b60405180910390fd5b818160008581548110610bd657610bd561125f565b5b90600052602060002090600502016001019182610bf4929190611789565b507fffd649067d2f5293ddcc5203d6eceffbaeba296dcd7eb5302dfe03b83ab98cad838383604051610c2893929190611859565b60405180910390a1505050565b600080fd5b600080fd5b6000819050919050565b610c5281610c3f565b8114610c5d57600080fd5b50565b600081359050610c6f81610c49565b92915050565b600060208284031215610c8b57610c8a610c35565b5b6000610c9984828501610c60565b91505092915050565b600073ffffffffffffffffffffffffffffffffffffffff82169050919050565b6000610ccd82610ca2565b9050919050565b610cdd81610cc2565b82525050565b600081519050919050565b600082825260208201905092915050565b60005b83811015610d1d578082015181840152602081019050610d02565b60008484015250505050565b6000601f19601f8301169050919050565b6000610d4582610ce3565b610d4f8185610cee565b9350610d5f818560208601610cff565b610d6881610d29565b840191505092915050565b610d7c81610c3f565b82525050565b7f4e487b7100000000000000000000000000000000000000000000000000000000600052602160045260246000fd5b60028110610dc257610dc1610d82565b5b50565b6000819050610dd382610db1565b919050565b6000610de382610dc5565b9050919050565b610df381610dd8565b82525050565b600060a082019050610e0e6000830188610cd4565b8181036020830152610e208187610d3a565b90508181036040830152610e348186610d3a565b9050610e436060830185610d73565b610e506080830184610dea565b9695505050505050565b600080fd5b600080fd5b600080fd5b60008083601f840112610e7f57610e7e610e5a565b5b8235905067ffffffffffffffff811115610e9c57610e9b610e5f565b5b602083019150836001820283011115610eb857610eb7610e64565b5b9250929050565b60008060008060408587031215610ed957610ed8610c35565b5b600085013567ffffffffffffffff811115610ef757610ef6610c3a565b5b610f0387828801610e69565b9450945050602085013567ffffffffffffffff811115610f2657610f25610c3a565b5b610f3287828801610e69565b925092505092959194509250565b6000602082019050610f556000830184610d73565b92915050565b600081519050919050565b600082825260208201905092915050565b6000819050602082019050919050565b610f9081610cc2565b82525050565b600082825260208201905092915050565b6000610fb282610ce3565b610fbc8185610f96565b9350610fcc818560208601610cff565b610fd581610d29565b840191505092915050565b610fe981610c3f565b82525050565b610ff881610dd8565b82525050565b600060a0830160008301516110166000860182610f87565b506020830151848203602086015261102e8282610fa7565b915050604083015184820360408601526110488282610fa7565b915050606083015161105d6060860182610fe0565b5060808301516110706080860182610fef565b508091505092915050565b60006110878383610ffe565b905092915050565b6000602082019050919050565b60006110a782610f5b565b6110b18185610f66565b9350836020820285016110c385610f77565b8060005b858110156110ff57848403895281516110e0858261107b565b94506110eb8361108f565b925060208a019950506001810190506110c7565b50829750879550505050505092915050565b6000602082019050818103600083015261112b818461109c565b905092915050565b60008060006040848603121561114c5761114b610c35565b5b600061115a86828701610c60565b935050602084013567ffffffffffffffff81111561117b5761117a610c3a565b5b61118786828701610e69565b92509250509250925092565b7f4e487b7100000000000000000000000000000000000000000000000000000000600052602260045260246000fd5b600060028204905060018216806111da57607f821691505b6020821081036111ed576111ec611193565b5b50919050565b7f496e6469636520696e76616c69646f0000000000000000000000000000000000600082015250565b6000611229600f83610cee565b9150611234826111f3565b602082019050919050565b600060208201905081810360008301526112588161121c565b9050919050565b7f4e487b7100000000000000000000000000000000000000000000000000000000600052603260045260246000fd5b7f596120636f6e6669726d61646f00000000000000000000000000000000000000600082015250565b60006112c4600d83610cee565b91506112cf8261128e565b602082019050919050565b600060208201905081810360008301526112f3816112b7565b9050919050565b7f456c206d656e73616a65206e6f20707565646520657374617220766163696f00600082015250565b6000611330601f83610cee565b915061133b826112fa565b602082019050919050565b6000602082019050818103600083015261135f81611323565b9050919050565b7f4e487b7100000000000000000000000000000000000000000000000000000000600052604160045260246000fd5b60008190508160005260206000209050919050565b60006020601f8301049050919050565b600082821b905092915050565b6000600883026113f77fffffffffffffffffffffffffffffffffffffffffffffffffffffffffffffffff826113ba565b61140186836113ba565b95508019841693508086168417925050509392505050565b6000819050919050565b600061143e61143961143484610c3f565b611419565b610c3f565b9050919050565b6000819050919050565b61145883611423565b61146c61146482611445565b8484546113c7565b825550505050565b600090565b611481611474565b61148c81848461144f565b505050565b5b818110156114b0576114a5600082611479565b600181019050611492565b5050565b601f8211156114f5576114c681611395565b6114cf846113aa565b810160208510156114de578190505b6114f26114ea856113aa565b830182611491565b50505b505050565b600082821c905092915050565b6000611518600019846008026114fa565b1980831691505092915050565b60006115318383611507565b9150826002028217905092915050565b61154a82610ce3565b67ffffffffffffffff81111561156357611562611366565b5b61156d82546111c2565b6115788282856114b4565b600060209050601f8311600181146115ab5760008415611599578287015190505b6115a38582611525565b86555061160b565b601f1984166115b986611395565b60005b828110156115e1578489015182556001820191506020850194506020810190506115bc565b868310156115fe57848901516115fa601f891682611507565b8355505b6001600288020188555050505b505050505050565b82818337600083830152505050565b600061162e8385610cee565b935061163b838584611613565b61164483610d29565b840190509392505050565b6000608082019050818103600083015261166a81888a611622565b9050818103602083015261167f818688611622565b905061168e6040830185610d73565b61169b6060830184610dea565b979650505050505050565b7f536f6c6f20656c2072656d6974656e746520707565646520656c696d696e6172600082015250565b60006116dc602083610cee565b91506116e7826116a6565b602082019050919050565b6000602082019050818103600083015261170b816116cf565b9050919050565b7f536f6c6f20656c2072656d6974656e7465207075656465206564697461720000600082015250565b6000611748601e83610cee565b915061175382611712565b602082019050919050565b600060208201905081810360008301526117778161173b565b9050919050565b600082905092915050565b611793838361177e565b67ffffffffffffffff8111156117ac576117ab611366565b5b6117b682546111c2565b6117c18282856114b4565b6000601f8311600181146117f057600084156117de578287013590505b6117e88582611525565b865550611850565b601f1984166117fe86611395565b60005b8281101561182657848901358255600182019150602085019450602081019050611801565b86831015611843578489013561183f601f891682611507565b8355505b6001600288020188555050505b50505050505050565b600060408201905061186e6000830186610d73565b8181036020830152611881818486611622565b905094935050505056fea2646970667358221220621072439d78a72503e5b0a14f1b6e89028de86995e6007b8180f2d5b77d4e1764736f6c63430008110033",
  "immutableReferences": {},
  "source": "// SPDX-License-Identifier: MIT\r\npragma solidity ^0.8.17;\r\n\r\ncontract RegistroMensajes {\r\n    enum Estado { Pendiente, Confirmado }\r\n    struct Mensaje {\r\n        address remitente;\r\n        string contenido;\r\n        string archivoHash; // hash o enlace IPFS\r\n        uint256 timestamp;\r\n        Estado estado;\r\n    }\r\n\r\n    Mensaje[] public mensajes;\r\n\r\n    event MensajeRegistrado(address indexed remitente, string contenido, string archivoHash, uint256 timestamp, Estado estado);\r\n    event MensajeConfirmado(uint256 index);\r\n    event MensajeEditado(uint256 index, string nuevoContenido);\r\n    event MensajeEliminado(uint256 index);\r\n\r\n\r\n    function registrarMensaje(string calldata _contenido, string calldata _archivoHash) external {\r\n        require(bytes(_contenido).length > 0, \"El mensaje no puede estar vacio\");\r\n\r\n        Estado estadoFinal = Estado.Confirmado;\r\n        if (bytes(_contenido).length > 50) {\r\n            estadoFinal = Estado.Pendiente;\r\n        }\r\n\r\n        mensajes.push(Mensaje({\r\n            remitente: msg.sender,\r\n            contenido: _contenido,\r\n            archivoHash: _archivoHash,\r\n            timestamp: block.timestamp,\r\n            estado: estadoFinal\r\n        }));\r\n\r\n        emit MensajeRegistrado(msg.sender, _contenido, _archivoHash, block.timestamp, estadoFinal);\r\n    }\r\n\r\n    function confirmarMensaje(uint256 index) external {\r\n        require(index < mensajes.length, \"Indice invalido\");\r\n        require(mensajes[index].estado == Estado.Pendiente, \"Ya confirmado\");\r\n        mensajes[index].estado = Estado.Confirmado;\r\n        emit MensajeConfirmado(index);\r\n    }\r\n\r\n    function editarMensaje(uint256 index, string calldata nuevoContenido) external {\r\n        require(index < mensajes.length, \"Indice invalido\");\r\n        require(mensajes[index].remitente == msg.sender, \"Solo el remitente puede editar\");\r\n        require(bytes(nuevoContenido).length > 0, \"El mensaje no puede estar vacio\");\r\n        mensajes[index].contenido = nuevoContenido;\r\n        emit MensajeEditado(index, nuevoContenido);\r\n    }\r\n\r\n    function eliminarMensaje(uint256 index) external {\r\n        require(index < mensajes.length, \"Indice invalido\");\r\n        require(mensajes[index].remitente == msg.sender, \"Solo el remitente puede eliminar\");\r\n        mensajes[index].contenido = \"[Eliminado por el usuario]\";\r\n        emit MensajeEliminado(index);\r\n    }\r\n\r\n    function obtenerTodosLosMensajes() external view returns (Mensaje[] memory) {\r\n        return mensajes;\r\n    }\r\n\r\n    function totalMensajes() external view returns (uint256) {\r\n        return mensajes.length;\r\n    }\r\n}\r\n",
  "sourcePath": "C:\\Users\\usser\\Documents\\RegistroSeguro\\contracts\\RegistroMensajes.sol",
  "compiler": {
    "name": "solc",
    "version": "0.8.17+commit.8df45f5f.Emscripten.clang"
  },
  "schemaVersion": "3.4.16",
  "updatedAt": "2025-06-16T13:47:59.360Z",
  "networkType": "ethereum",
  "devdoc": {
    "kind": "dev",
    "methods": {},
    "version": 1
  },
  "userdoc": {
    "kind": "user",
    "methods": {},
    "version": 1
  }
}